:10700000E1C000002AC1000004C1000002C100006C
:1070100000C10000FEC00000FCC00000FAC000007B
:10702000F8C00000F6C00000F4C00000F2C000008C
:10703000F0C00000EEC00000ECC00000EAC000009C
:10704000E8C00000E6C00000E4C00000E2C00000AC
:10705000E0C00000DEC00000DCC00000DAC00000BC
:10706000D8C00000D6C000007E3FF9F76A39F9F7B2
:107070005635F9F74038F9F7EC2DFD2DB7B6B0FCD1
:10708000FDCF27BFE895B7B6B0FCFDCF21E1B7B67D
:10709000B6FCF4CF0895040309041C0377007700BD
:1070A00077002E00660069007300630068006C00C2
:1070B0002E00640065000E0355005300420061007D
:1070C0007300700012011001FF000008C016DC05FB
:1070D00002010102000109021200010100803209CF
:1070E0000400000000000000FF3F1F0F0F07070310
:1070F000030303030307070F0F1F3FFFFFFFFFFFFC
:10710000FF3F1F0F0F070703030303030307070FC7
:107110000F1F3FFF00000000000000000000000003
:107120000000000000000000FFFFFFFFF0C0800033
:107130000000000000000000000000000080C0F01F
:10714000000000000000000000000000000000003F
:1071500000000000FFFFFFFFFFFFFFFFFF7E7E3C00
:107160003C3C3C3C3C7E7EFFFFFFFFFF00000000FC
:10717000000000000000000000000000000000000F
:10718000FFFFFFFF0F0301000000000000000000F0
:10719000000000000001030FFFFCF8F0F0E0E0C089
:1071A000C0C0C0C0C0E0E0F0F0F8FCFFFFFFFFFF90
:1071B000FFFCF8F0F0E0E0C0C0C0C0C0C0E0E0F00C
:1071C000F0F8FCFF11241FBECFEFD8E0DEBFCDBF2B
:1071D00034B7D8E0CEEF29912833299109F02FEF69
:1071E00020933E0130933F0111E0A0E0B1E0ECE3D9
:1071F000FBE702C005900D92A630B107D9F711E068
:10720000A6E0B1E001C01D92AE33B107E1F794D121
:1072100093C4F6CEDC018FEF9FEF332715C02D917D
:107220002827722F22952727822F269526952827F3
:1072300023952270321777952795822F8927972FCC
:107240007695279597278227615048F780959095E6
:107250000895E0DF8D939D930895CF93CFB7CF939B
:10726000DF93C3954B9BE9F74B9B11C04B9B0FC022
:107270004B9B0DC04B9B0BC04B9B09C04B9B07C04E
:107280004B9B05C04B9B03C04B9B01C081C06F93C0
:10729000C0912101DD27C85DDE4F2F9320E400C09F
:1072A00065E04B9B03C02F916F91DECF0F931F932F
:1072B0004F9345E55F9355E53F933BE014E009B1FB
:1072C0000C702EC06A95C9F03150D8F109B10C701C
:1072D00001130BC008942795299320E4555500F419
:1072E0006A9569F701E069B10BC0102F66E0269539
:1072F000299320E4555518F3E2CF0FEF69B1000050
:10730000162F455500F0404066E01C700030E2F258
:1073100021F0000009B10C7003C009B10C70A9F094
:10732000011309C00894279568F200C06A95A9F76F
:1073300000E069B1E5CF102F66E0269528F2000045
:10734000ECCF11E01CBB002717C03B503195C31B8D
:10735000D04011E01CBB0881033CF9F00B34E9F08C
:1073600020911F011981110F1213EDCF093651F130
:107370000D3211F0013E39F7009326013F915F91E4
:107380004F911F910F912F916F91CCB3C0FD69CF99
:10739000DF91CF91CFBFCF91189520912601222365
:1073A00069F310912401112329F534302AF1309327
:1073B000240120932001109121013BE0311B3093E7
:1073C00021011AC0009124010130A4F40AE5309192
:1073D000000134FD12C000930001C4E1D1E011C0EE
:1073E000052710E000C00BB919C0052710E0221FC7
:1073F00000C01DC04AE502C032ED432FC4E1D0E019
:1074000032E01AB11C605B9A0BB11AB95CE020E85B
:1074100069E420FF05270BB92795179500C00000E8
:107420001C3FF0F66695A8F7A1F720FF05270BB9DA
:107430002795179500001C3FC0F629913A9541F712
:10744000037F10912501110F0BB9C651D04011F0E7
:1074500010931F0111E01CBB08601AB1137F402F6D
:10746000437F55E05A95F1F70BB91AB94BB986CF5E
:10747000FB01A89531978040E1F70895DC01139650
:107480002C91139714969C91149712968C911297A5
:10749000803339F49370E92FF0E0EE5FFE4F808186
:1074A0000895F22FE92F883549F4222391F4E1E081
:1074B000F0E089E080935700849108958035D9F4F5
:1074C000222381F4E0E0F0E089E08093570084918A
:1074D0000895283051F5E3E0F0E089E0809357000B
:1074E00084910895283009F5E2E0F0E089E0809386
:1074F000570084910895803221F4EE0FFF1F84918C
:107500000895883229F4EE0FFF1F31968491089573
:10751000803A11F4CF01FAC2803C29F4CF011596CC
:107520006C91FCD202C08F3F11F080E0089581EF92
:1075300080930B0180E0089534D214B714BE17B8BD
:1075400084E088B981E085BF82E085BF83E060E4A4
:107550007DE08EDF80913F01877F21F480913E01A5
:10756000882321F0329B02C010FDF1C18EEF809381
:107570000B0114BE88E10FB6F8948093600010925E
:1075800060000FBE80916900826080936900E89A74
:1075900054985C988FE060E472E46ADF549A5C9AD5
:1075A000789490912401935097FD37C180912101E7
:1075B000CCE0D0E0C81BD109C85DDE4F809120012E
:1075C0008D3209F0BAC0983009F025C183EC809360
:1075D00014018AE58093000110920A013881832FFB
:1075E000807629818823D1F186E091E09093230170
:1075F00080932201233031F4CE0140DF80930901D2
:1076000024E091C0253041F12A3031F1822F84509D
:107610008630A8F48A819B8190930D0180930C01A0
:107620002930C1F08E8180930E018D81827080930C
:107630000F012093100137FD71C09FEF70C0223001
:1076400021F480910B018E7F03C080910B0181603A
:1076500080930B0120E067C021E065C08A81109211
:107660001D01222331F410921E018DE191E022E0F0
:1076700050C0253019F48093250148C02630B1F55B
:107680008B81813019F484EC90E704C0823041F49E
:1076900086ED90E7909323018093220122E122C09E
:1076A0008330F9F48A81882341F486E990E7909346
:1076B00023018093220124E015C0813041F48AE93E
:1076C00090E790932301809322012CE10BC082303C
:1076D00041F486EB90E790932301809322012EE002
:1076E00001C020E080E480930A011DC0283019F415
:1076F00087E291E009C0293019F48093270106C080
:107700002A3021F48DE191E021E003C08DE191E088
:1077100020E0909323018093220105C09E8180E8A0
:1077200080930A0107C08F81882319F49E819217E4
:1077300008F0922F909301016EC080910A0187FF9B
:107740006AC080910E01092F891708F4082F801B49
:1077500080930E01FF24882311F4FF24F39410E09A
:1077600053C080911001E0910C01F0910D01873020
:1077700058F03196F0930D01E0930C013197699127
:10778000CF01CCD11F5F40C080E7E030F80708F0A0
:1077900040C01E5FF8948991999121E00C012093DB
:1077A0005700E89511247894CF01029690930D012B
:1077B00080930C018F779070892B41F0FF2021F18D
:1077C000101710F180910F018823F1F090D1F894F7
:1077D000E0910C01F0910D01329783E08093570006
:1077E000E895789407B600FCFDCFF89485E0809387
:1077F0005700E895789407B600FCFDCFF89481E136
:1078000080935700E8957894101708F4AACFFF20CA
:1078100011F010920101109224018091000184FF67
:1078200072C0809101018F3F09F46DC0182F89301B
:1078300008F018E0811B809301018091140198E801
:10784000892780931401112309F44BC080910A0108
:1078500087FF2BC050D180910E01811708F4182F9B
:10786000811B80930E0100911001C5E1D1E015C08C
:10787000E0910C01F0910D01073018F0CF0146D1D5
:1078800001C084918883219680910C0190910D0113
:10789000019690930D0180930C01812F90E08B5EF7
:1078A0009E4FC817D90721F71AC0E0912201F09125
:1078B000230186FF09C0912FA5E1B1E084918D934A
:1078C00031969150D9F707C0912FA5E1B1E0819190
:1078D0008D939150E1F7F0932301E0932201193049
:1078E00060F485E191E0612FB4DC612F6C5F6C3056
:1078F00041F08FEF8093010104C08FEF809301016D
:107900006EE16093000194E189B18C7031F4915083
:10791000D9F71092250110921F0180910B0180313F
:1079200030F0329B0FC080910B01805109C0329919
:1079300009C080910B01823028F080910B018250A8
:1079400080930B0180910B01882309F02ACE84E2F9
:1079500060E07FE98DDDF89454985C9818B8BED04B
:107960001DBA1092690081E085BF15BEE09111013A
:10797000F091120109958EBD0DB407FEFDCF08955B
:107980002A9808952A9A08951F93182F4098F8DF8F
:107990001F7310931301812F8064EDDFF3DF1F91BC
:1079A0000895EF92FF920F931F93CF93DF9384B1CB
:1079B0008C6284B987B1836087B9F999FECF8FEF64
:1079C00093E092BD81BDF89A80B5882311F0219A89
:1079D000299A80E58CBD81E08DBD419A4098D0DF29
:1079E00080E4C9DF80EBC7DF80E0C5DF80E1C3DF73
:1079F00080EAC1DF88ECBFDF86EABDDF82EABBDF59
:107A00008FE2B9DF88EFB7DF80E0B5DF83E2B3DF75
:107A100081E8B1DF87E2AFDF8CEAADDF8AEFABDF71
:107A200083E8A9DF84EAA7DF8FEAA5DFABDFA8DF61
:107A3000409880E0A0DF80E19EDF80EB9CDF409AF1
:107A400010E080E098DF1F5F1438D9F788EEE82E49
:107A500080E7F82E01E0409880E08DDF80E18BDF49
:107A6000802F8770806B87DF409A10E080E083DF93
:107A70001F5F1A32D9F7E70110E0FE01849180956B
:107A80007ADF1F5F21961C32C1F716E580E073DFB5
:107A90001F5F1438D9F70F5F8CE290E0E80EF91EF3
:107AA0000630C9F6409880E066DF80E164DF802F11
:107AB000806B61DF409A10E080E05DDF1F5F14386B
:107AC000D9F70F5F093070F35DDF8CE35DDFDF9185
:107AD000CF911F910F91FF90EF90089584B1837D16
:107AE00084B985B1837D85B938984098089580918F
:107AF00013018F5F49CF05C0FADF88EA91E601974D
:107B0000F1F7809113018C33B9F70895F999FECFFD
:107B100092BD81BDF89A992780B50895262FF999CD
:107B2000FECF1FBA92BD81BD20BD0FB6F894FA9A60
:0C7B3000F99A0FBE01960895F894FFCF5B
:067B3C005AFF1E950F0028
:040000030000700089
:00000001FF
